{
  "contractName": "Crowdfund",
  "abi": [
    {
      "constant": true,
      "inputs": [
        {
          "name": "",
          "type": "uint256"
        }
      ],
      "name": "projects",
      "outputs": [
        {
          "name": "creator",
          "type": "address"
        },
        {
          "name": "title",
          "type": "string"
        },
        {
          "name": "description",
          "type": "string"
        },
        {
          "name": "fundraisingDeadline",
          "type": "uint256"
        },
        {
          "name": "completionDeadline",
          "type": "uint256"
        },
        {
          "name": "goalAmount",
          "type": "uint256"
        },
        {
          "name": "currentBalance",
          "type": "uint256"
        },
        {
          "name": "state",
          "type": "uint8"
        }
      ],
      "payable": false,
      "stateMutability": "view",
      "type": "function"
    },
    {
      "constant": true,
      "inputs": [],
      "name": "projectCount",
      "outputs": [
        {
          "name": "",
          "type": "uint256"
        }
      ],
      "payable": false,
      "stateMutability": "view",
      "type": "function"
    },
    {
      "constant": true,
      "inputs": [
        {
          "name": "",
          "type": "uint256"
        }
      ],
      "name": "projectMilestoneCount",
      "outputs": [
        {
          "name": "",
          "type": "uint256"
        }
      ],
      "payable": false,
      "stateMutability": "view",
      "type": "function"
    },
    {
      "constant": true,
      "inputs": [
        {
          "name": "",
          "type": "uint256"
        }
      ],
      "name": "votes",
      "outputs": [
        {
          "name": "milestoneId",
          "type": "uint256"
        },
        {
          "name": "yay",
          "type": "uint256"
        },
        {
          "name": "nay",
          "type": "uint256"
        },
        {
          "name": "pollsClose",
          "type": "uint256"
        }
      ],
      "payable": false,
      "stateMutability": "view",
      "type": "function"
    },
    {
      "constant": true,
      "inputs": [
        {
          "name": "",
          "type": "uint256"
        },
        {
          "name": "",
          "type": "uint256"
        }
      ],
      "name": "projectMilestones",
      "outputs": [
        {
          "name": "",
          "type": "uint256"
        }
      ],
      "payable": false,
      "stateMutability": "view",
      "type": "function"
    },
    {
      "constant": true,
      "inputs": [
        {
          "name": "",
          "type": "uint256"
        }
      ],
      "name": "milestoneVote",
      "outputs": [
        {
          "name": "",
          "type": "uint256"
        }
      ],
      "payable": false,
      "stateMutability": "view",
      "type": "function"
    },
    {
      "constant": true,
      "inputs": [
        {
          "name": "",
          "type": "uint256"
        }
      ],
      "name": "milestones",
      "outputs": [
        {
          "name": "projectId",
          "type": "uint256"
        },
        {
          "name": "creator",
          "type": "address"
        },
        {
          "name": "deliverable",
          "type": "string"
        },
        {
          "name": "cost",
          "type": "uint256"
        },
        {
          "name": "daysToComplete",
          "type": "uint256"
        }
      ],
      "payable": false,
      "stateMutability": "view",
      "type": "function"
    },
    {
      "anonymous": false,
      "inputs": [
        {
          "indexed": false,
          "name": "projectId",
          "type": "uint256"
        },
        {
          "indexed": false,
          "name": "creator",
          "type": "address"
        },
        {
          "indexed": false,
          "name": "title",
          "type": "string"
        },
        {
          "indexed": false,
          "name": "description",
          "type": "string"
        },
        {
          "indexed": false,
          "name": "fundraisingDeadline",
          "type": "uint256"
        }
      ],
      "name": "ProjectCreated",
      "type": "event"
    },
    {
      "anonymous": false,
      "inputs": [
        {
          "indexed": false,
          "name": "milestoneId",
          "type": "uint256"
        },
        {
          "indexed": false,
          "name": "creator",
          "type": "address"
        },
        {
          "indexed": false,
          "name": "deliverable",
          "type": "string"
        },
        {
          "indexed": false,
          "name": "cost",
          "type": "uint256"
        },
        {
          "indexed": false,
          "name": "daysToComplete",
          "type": "uint256"
        }
      ],
      "name": "MilestoneCreated",
      "type": "event"
    },
    {
      "anonymous": false,
      "inputs": [
        {
          "indexed": false,
          "name": "voteId",
          "type": "uint256"
        },
        {
          "indexed": false,
          "name": "pollsClose",
          "type": "uint256"
        }
      ],
      "name": "VoteCreated",
      "type": "event"
    },
    {
      "anonymous": false,
      "inputs": [
        {
          "indexed": false,
          "name": "contributor",
          "type": "address"
        },
        {
          "indexed": false,
          "name": "amount",
          "type": "uint256"
        },
        {
          "indexed": false,
          "name": "currentTotal",
          "type": "uint256"
        }
      ],
      "name": "FundingReceived",
      "type": "event"
    },
    {
      "anonymous": false,
      "inputs": [
        {
          "indexed": false,
          "name": "recipient",
          "type": "address"
        },
        {
          "indexed": false,
          "name": "amount",
          "type": "uint256"
        }
      ],
      "name": "CreatorPaid",
      "type": "event"
    },
    {
      "constant": false,
      "inputs": [
        {
          "name": "_title",
          "type": "string"
        },
        {
          "name": "_description",
          "type": "string"
        },
        {
          "name": "_daysToFundraise",
          "type": "uint256"
        }
      ],
      "name": "createProject",
      "outputs": [],
      "payable": false,
      "stateMutability": "nonpayable",
      "type": "function"
    },
    {
      "constant": false,
      "inputs": [
        {
          "name": "_projectId",
          "type": "uint256"
        }
      ],
      "name": "contribute",
      "outputs": [],
      "payable": true,
      "stateMutability": "payable",
      "type": "function"
    },
    {
      "constant": true,
      "inputs": [
        {
          "name": "_projectId",
          "type": "uint256"
        }
      ],
      "name": "getContributions",
      "outputs": [
        {
          "name": "",
          "type": "uint256"
        }
      ],
      "payable": false,
      "stateMutability": "view",
      "type": "function"
    },
    {
      "constant": false,
      "inputs": [
        {
          "name": "_projectId",
          "type": "uint256"
        }
      ],
      "name": "checkIfFundingComplete",
      "outputs": [],
      "payable": false,
      "stateMutability": "nonpayable",
      "type": "function"
    },
    {
      "constant": false,
      "inputs": [
        {
          "name": "_projectId",
          "type": "uint256"
        }
      ],
      "name": "getRefund",
      "outputs": [
        {
          "name": "",
          "type": "bool"
        }
      ],
      "payable": false,
      "stateMutability": "nonpayable",
      "type": "function"
    },
    {
      "constant": false,
      "inputs": [
        {
          "name": "_projectId",
          "type": "uint256"
        },
        {
          "name": "_deliverable",
          "type": "string"
        },
        {
          "name": "_cost",
          "type": "uint256"
        },
        {
          "name": "_daysToComplete",
          "type": "uint256"
        }
      ],
      "name": "createMilestone",
      "outputs": [],
      "payable": false,
      "stateMutability": "nonpayable",
      "type": "function"
    },
    {
      "constant": false,
      "inputs": [
        {
          "name": "_milestoneId",
          "type": "uint256"
        },
        {
          "name": "votingPeriod",
          "type": "uint256"
        }
      ],
      "name": "createVote",
      "outputs": [],
      "payable": false,
      "stateMutability": "nonpayable",
      "type": "function"
    },
    {
      "constant": false,
      "inputs": [
        {
          "name": "_voteId",
          "type": "uint256"
        }
      ],
      "name": "voteYay",
      "outputs": [],
      "payable": false,
      "stateMutability": "nonpayable",
      "type": "function"
    },
    {
      "constant": false,
      "inputs": [
        {
          "name": "_voteId",
          "type": "uint256"
        }
      ],
      "name": "voteNay",
      "outputs": [],
      "payable": false,
      "stateMutability": "nonpayable",
      "type": "function"
    }
  ],
  "bytecode": "0x6080604052600060015534801561001557600080fd5b50611fd3806100256000396000f3fe6080604052600436106100f35760003560e01c80636cb0adba1161008a578063ca96fc3811610059578063ca96fc3814610674578063d05e3cc5146106af578063d2f0be99146106fe578063e89e4ed614610751576100f3565b80636cb0adba146105635780638f328d7a146105bc578063a5b81d73146105f7578063c1cbbca714610646576100f3565b806336fbad26116100c657806336fbad26146103e1578063489c9c751461040c5780635df813301461045b5780636b0876eb146104bf576100f3565b8063014396f2146100f8578063107046bd146101335780631b468312146102b757806323c55448146102fc575b600080fd5b34801561010457600080fd5b506101316004803603602081101561011b57600080fd5b810190808035906020019092919050505061084d565b005b34801561013f57600080fd5b5061016c6004803603602081101561015657600080fd5b8101908080359060200190929190505050610921565b604051808973ffffffffffffffffffffffffffffffffffffffff1673ffffffffffffffffffffffffffffffffffffffff16815260200180602001806020018881526020018781526020018681526020018581526020018460028111156101ce57fe5b60ff16815260200183810383528a818151815260200191508051906020019080838360005b8381101561020e5780820151818401526020810190506101f3565b50505050905090810190601f16801561023b5780820380516001836020036101000a031916815260200191505b50838103825289818151815260200191508051906020019080838360005b83811015610274578082015181840152602081019050610259565b50505050905090810190601f1680156102a15780820380516001836020036101000a031916815260200191505b509a505050505050505050505060405180910390f35b3480156102c357600080fd5b506102fa600480360360408110156102da57600080fd5b810190808035906020019092919080359060200190929190505050610ad3565b005b34801561030857600080fd5b506103df6004803603606081101561031f57600080fd5b810190808035906020019064010000000081111561033c57600080fd5b82018360208201111561034e57600080fd5b8035906020019184600183028401116401000000008311171561037057600080fd5b90919293919293908035906020019064010000000081111561039157600080fd5b8201836020820111156103a357600080fd5b803590602001918460018302840111640100000000831117156103c557600080fd5b909192939192939080359060200190929190505050610bfe565b005b3480156103ed57600080fd5b506103f6610f1b565b6040518082815260200191505060405180910390f35b34801561041857600080fd5b506104456004803603602081101561042f57600080fd5b8101908080359060200190929190505050610f21565b6040518082815260200191505060405180910390f35b34801561046757600080fd5b506104946004803603602081101561047e57600080fd5b8101908080359060200190929190505050610f39565b6040518085815260200184815260200183815260200182815260200194505050505060405180910390f35b3480156104cb57600080fd5b50610561600480360360808110156104e257600080fd5b81019080803590602001909291908035906020019064010000000081111561050957600080fd5b82018360208201111561051b57600080fd5b8035906020019184600183028401116401000000008311171561053d57600080fd5b90919293919293908035906020019092919080359060200190929190505050610f76565b005b34801561056f57600080fd5b506105a66004803603604081101561058657600080fd5b810190808035906020019092919080359060200190929190505050611213565b6040518082815260200191505060405180910390f35b3480156105c857600080fd5b506105f5600480360360208110156105df57600080fd5b8101908080359060200190929190505050611241565b005b34801561060357600080fd5b506106306004803603602081101561061a57600080fd5b8101908080359060200190929190505050611315565b6040518082815260200191505060405180910390f35b6106726004803603602081101561065c57600080fd5b810190808035906020019092919050505061132d565b005b34801561068057600080fd5b506106ad6004803603602081101561069757600080fd5b81019080803590602001909291905050506115b5565b005b3480156106bb57600080fd5b506106e8600480360360208110156106d257600080fd5b81019080803590602001909291905050506116c2565b6040518082815260200191505060405180910390f35b34801561070a57600080fd5b506107376004803603602081101561072157600080fd5b8101908080359060200190929190505050611726565b604051808215151515815260200191505060405180910390f35b34801561075d57600080fd5b5061078a6004803603602081101561077457600080fd5b81019080803590602001909291905050506119a1565b604051808681526020018573ffffffffffffffffffffffffffffffffffffffff1673ffffffffffffffffffffffffffffffffffffffff16815260200180602001848152602001838152602001828103825285818151815260200191508051906020019080838360005b8381101561080e5780820151818401526020810190506107f3565b50505050905090810190601f16801561083b5780820380516001836020036101000a031916815260200191505b50965050505050505060405180910390f35b80600080600260066000858152602001908152602001600020548154811061087157fe5b9060005260206000209060050201600001548154811061088d57fe5b906000526020600020906009020160080160003373ffffffffffffffffffffffffffffffffffffffff1673ffffffffffffffffffffffffffffffffffffffff16815260200190815260200160002054116108e657600080fd5b600582815481106108f357fe5b90600052602060002090600402016002016000815480929190600101919050555061091d82611a9c565b5050565b6000818154811061092e57fe5b90600052602060002090600902016000915090508060000160009054906101000a900473ffffffffffffffffffffffffffffffffffffffff1690806001018054600181600116156101000203166002900480601f016020809104026020016040519081016040528092919081815260200182805460018160011615610100020316600290048015610a005780601f106109d557610100808354040283529160200191610a00565b820191906000526020600020905b8154815290600101906020018083116109e357829003601f168201915b505050505090806002018054600181600116156101000203166002900480601f016020809104026020016040519081016040528092919081815260200182805460018160011615610100020316600290048015610a9e5780601f10610a7357610100808354040283529160200191610a9e565b820191906000526020600020905b815481529060010190602001808311610a8157829003601f168201915b5050505050908060030154908060040154908060050154908060060154908060070160009054906101000a900460ff16905088565b6000610b1262093a80610b04610af56201518086611a9f90919063ffffffff16565b42611b2590919063ffffffff16565b611b2590919063ffffffff16565b9050610b1c611e05565b6040518060800160405280858152602001600081526020016000815260200183815250905060006001600583908060018154018082558091505090600182039060005260206000209060040201600090919290919091506000820151816000015560208201518160010155604082015181600201556060820151816003015550500390508060066000878152602001908152602001600020819055507ff558b17e24256d39da5ae39993b5a201700ef76769a6067cb8d1d33f769a3bc18184604051808381526020018281526020019250505060405180910390a15050505050565b6000610c28610c196201518084611a9f90919063ffffffff16565b42611b2590919063ffffffff16565b9050610c32611e2d565b6040518061010001604052803373ffffffffffffffffffffffffffffffffffffffff16815260200188888080601f016020809104026020016040519081016040528093929190818152602001838380828437600081840152601f19601f82011690508083019250505050505050815260200186868080601f016020809104026020016040519081016040528093929190818152602001838380828437600081840152601f19601f82011690508083019250505050505050815260200183815260200160008152602001600081526020016000815260200160006002811115610d1657fe5b8152509050600060016000839080600181540180825580915050906001820390600052602060002090600902016000909192909190915060008201518160000160006101000a81548173ffffffffffffffffffffffffffffffffffffffff021916908373ffffffffffffffffffffffffffffffffffffffff1602179055506020820151816001019080519060200190610db0929190611e93565b506040820151816002019080519060200190610dcd929190611e93565b50606082015181600301556080820151816004015560a0820151816005015560c0820151816006015560e08201518160070160006101000a81548160ff02191690836002811115610e1a57fe5b021790555050500390506001600081548092919060010191905055507f3c3fbb6a154e75fbef89d966d453c10b2ecc4dba66a0b8a755d720fae33a8fda81338a8a8a8a89604051808881526020018773ffffffffffffffffffffffffffffffffffffffff1673ffffffffffffffffffffffffffffffffffffffff16815260200180602001806020018481526020018381038352888882818152602001925080828437600081840152601f19601f8201169050808301925050508381038252868682818152602001925080828437600081840152601f19601f820116905080830192505050995050505050505050505060405180910390a15050505050505050565b60015481565b60046020528060005260406000206000915090505481565b60058181548110610f4657fe5b90600052602060002090600402016000915090508060000154908060010154908060020154908060030154905084565b610f7e611f13565b6040518060a001604052808781526020013373ffffffffffffffffffffffffffffffffffffffff16815260200186868080601f016020809104026020016040519081016040528093929190818152602001838380828437600081840152601f19601f8201169050808301925050505050505081526020018481526020016110116201518085611a9f90919063ffffffff16565b815250905060006001600283908060018154018082558091505090600182039060005260206000209060050201600090919290919091506000820151816000015560208201518160010160006101000a81548173ffffffffffffffffffffffffffffffffffffffff021916908373ffffffffffffffffffffffffffffffffffffffff16021790555060408201518160020190805190602001906110b5929190611e93565b5060608201518160030155608082015181600401555050039050600360008881526020019081526020016000208190806001815401808255809150509060018203906000526020600020016000909192909190915055506004600088815260200190815260200160002060008154809291906001019190505550836000888154811061113d57fe5b9060005260206000209060090201600501600082825401925050819055507fc154f68ef1e5d6557b0ae0009b97210cd3d376fe47b2d1896afc059fdac63cbc813388888888604051808781526020018673ffffffffffffffffffffffffffffffffffffffff1673ffffffffffffffffffffffffffffffffffffffff168152602001806020018481526020018381526020018281038252868682818152602001925080828437600081840152601f19601f82011690508083019250505097505050505050505060405180910390a150505050505050565b6003602052816000526040600020818154811061122c57fe5b90600052602060002001600091509150505481565b80600080600260066000858152602001908152602001600020548154811061126557fe5b9060005260206000209060050201600001548154811061128157fe5b906000526020600020906009020160080160003373ffffffffffffffffffffffffffffffffffffffff1673ffffffffffffffffffffffffffffffffffffffff16815260200190815260200160002054116112da57600080fd5b600582815481106112e757fe5b90600052602060002090600402016001016000815480929190600101919050555061131182611a9c565b5050565b60066020528060005260406000206000915090505481565b806000818154811061133b57fe5b906000526020600020906009020160000160009054906101000a900473ffffffffffffffffffffffffffffffffffffffff1673ffffffffffffffffffffffffffffffffffffffff163373ffffffffffffffffffffffffffffffffffffffff1614156113a557600080fd5b8160008060028111156113b457fe5b600083815481106113c157fe5b906000526020600020906009020160070160009054906101000a900460ff1660028111156113eb57fe5b146113f557600080fd5b611463346000868154811061140657fe5b906000526020600020906009020160080160003373ffffffffffffffffffffffffffffffffffffffff1673ffffffffffffffffffffffffffffffffffffffff16815260200190815260200160002054611b2590919063ffffffff16565b6000858154811061147057fe5b906000526020600020906009020160080160003373ffffffffffffffffffffffffffffffffffffffff1673ffffffffffffffffffffffffffffffffffffffff168152602001908152602001600020819055506114f334600086815481106114d357fe5b906000526020600020906009020160060154611b2590919063ffffffff16565b6000858154811061150057fe5b9060005260206000209060090201600601819055507f5cdc4ab8d637538ead6cc1904d4160343656c8c82bd266635cfd31ac008fffe033346000878154811061154557fe5b906000526020600020906009020160060154604051808473ffffffffffffffffffffffffffffffffffffffff1673ffffffffffffffffffffffffffffffffffffffff168152602001838152602001828152602001935050505060405180910390a16115af846115b5565b50505050565b600081815481106115c257fe5b906000526020600020906009020160050154600082815481106115e157fe5b906000526020600020906009020160060154106116435760026000828154811061160757fe5b906000526020600020906009020160070160006101000a81548160ff0219169083600281111561163357fe5b021790555061164181611bad565b505b61169d60026003600084815260200190815260200160002060008154811061166757fe5b90600052602060002001548154811061167c57fe5b90600052602060002090600502016004015442611b2590919063ffffffff16565b600082815481106116aa57fe5b90600052602060002090600902016004018190555050565b60008082815481106116d057fe5b906000526020600020906009020160080160003373ffffffffffffffffffffffffffffffffffffffff1673ffffffffffffffffffffffffffffffffffffffff168152602001908152602001600020549050919050565b600081600180600281111561173757fe5b6000838154811061174457fe5b906000526020600020906009020160070160009054906101000a900460ff16600281111561176e57fe5b1461177857600080fd5b600080858154811061178657fe5b906000526020600020906009020160080160003373ffffffffffffffffffffffffffffffffffffffff1673ffffffffffffffffffffffffffffffffffffffff16815260200190815260200160002054116117df57600080fd5b60008085815481106117ed57fe5b906000526020600020906009020160080160003373ffffffffffffffffffffffffffffffffffffffff1673ffffffffffffffffffffffffffffffffffffffff168152602001908152602001600020549050600080868154811061184c57fe5b906000526020600020906009020160080160003373ffffffffffffffffffffffffffffffffffffffff1673ffffffffffffffffffffffffffffffffffffffff168152602001908152602001600020819055503373ffffffffffffffffffffffffffffffffffffffff166108fc829081150290604051600060405180830381858888f193505050506119415780600086815481106118e557fe5b906000526020600020906009020160080160003373ffffffffffffffffffffffffffffffffffffffff1673ffffffffffffffffffffffffffffffffffffffff16815260200190815260200160002081905550600093505061199a565b611972816000878154811061195257fe5b906000526020600020906009020160060154611d7c90919063ffffffff16565b6000868154811061197f57fe5b90600052602060002090600902016006018190555060019350505b5050919050565b600281815481106119ae57fe5b90600052602060002090600502016000915090508060000154908060010160009054906101000a900473ffffffffffffffffffffffffffffffffffffffff1690806002018054600181600116156101000203166002900480601f016020809104026020016040519081016040528092919081815260200182805460018160011615610100020316600290048015611a865780601f10611a5b57610100808354040283529160200191611a86565b820191906000526020600020905b815481529060010190602001808311611a6957829003601f168201915b5050505050908060030154908060040154905085565b50565b600080831415611ab25760009050611b1f565b6000828402905082848281611ac357fe5b0414611b1a576040517f08c379a0000000000000000000000000000000000000000000000000000000008152600401808060200182810382526021815260200180611f7e6021913960400191505060405180910390fd5b809150505b92915050565b600080828401905083811015611ba3576040517f08c379a000000000000000000000000000000000000000000000000000000000815260040180806020018281038252601b8152602001807f536166654d6174683a206164646974696f6e206f766572666c6f77000000000081525060200191505060405180910390fd5b8091505092915050565b6000816002806002811115611bbe57fe5b60008381548110611bcb57fe5b906000526020600020906009020160070160009054906101000a900460ff166002811115611bf557fe5b14611bff57600080fd5b6000808581548110611c0d57fe5b906000526020600020906009020160060154905060008581548110611c2e57fe5b906000526020600020906009020160000160009054906101000a900473ffffffffffffffffffffffffffffffffffffffff1673ffffffffffffffffffffffffffffffffffffffff166108fc829081150290604051600060405180830381858888f1935050505015611d6f577f14f433c13badc2239830ab3bb19e75dec63d39f851363844cc4e4650d0c9b60160008681548110611cc757fe5b906000526020600020906009020160000160009054906101000a900473ffffffffffffffffffffffffffffffffffffffff1682604051808373ffffffffffffffffffffffffffffffffffffffff1673ffffffffffffffffffffffffffffffffffffffff1681526020018281526020019250505060405180910390a16000808681548110611d5057fe5b9060005260206000209060090201600601819055506001935050611d75565b60009350505b5050919050565b600082821115611df4576040517f08c379a000000000000000000000000000000000000000000000000000000000815260040180806020018281038252601e8152602001807f536166654d6174683a207375627472616374696f6e206f766572666c6f77000081525060200191505060405180910390fd5b600082840390508091505092915050565b6040518060800160405280600081526020016000815260200160008152602001600081525090565b604051806101000160405280600073ffffffffffffffffffffffffffffffffffffffff16815260200160608152602001606081526020016000815260200160008152602001600081526020016000815260200160006002811115611e8d57fe5b81525090565b828054600181600116156101000203166002900490600052602060002090601f016020900481019282601f10611ed457805160ff1916838001178555611f02565b82800160010185558215611f02579182015b82811115611f01578251825591602001919060010190611ee6565b5b509050611f0f9190611f58565b5090565b6040518060a0016040528060008152602001600073ffffffffffffffffffffffffffffffffffffffff1681526020016060815260200160008152602001600081525090565b611f7a91905b80821115611f76576000816000905550600101611f5e565b5090565b9056fe536166654d6174683a206d756c7469706c69636174696f6e206f766572666c6f77a265627a7a7230582095d0d106426dfec1fec1e9977962be15f600447f11f7ca3fbd0876a00215a25f64736f6c634300050a0032",
  "source": "pragma solidity ^0.5.0;\n\nimport \"openzeppelin-solidity/contracts/math/SafeMath.sol\";\n\ncontract Crowdfund {\n    using SafeMath for uint;\n\n    /** Events **/\n\n    // Emitted when a new Project is created.\n    event ProjectCreated(\n        uint projectId,\n        address creator,\n        string title,\n        string description,\n        uint fundraisingDeadline\n    );\n\n    // Emitted when a new Milestone is created.\n    event MilestoneCreated(\n        uint milestoneId,\n        address creator,\n        string deliverable,\n        uint cost,\n        uint daysToComplete\n    );\n\n    // Emitted when a new Vote is created.\n    event VoteCreated(\n        uint voteId,\n        uint pollsClose\n    );\n\n    // Emitted when project funding is received and escrowed.\n    event FundingReceived(address contributor, uint amount, uint currentTotal);\n    \n    // Emitted when project creator is paid out for a milestone.\n    event CreatorPaid(address recipient, uint amount);\n\n    /** Project data structures **/\n\n    enum ProjectState {\n        Fundraising,\n        Expired,\n        Successful\n    }\n\n    struct Project {\n        address payable creator;\n        string title;\n        string description;\n        uint fundraisingDeadline;\n        uint completionDeadline;\n        uint goalAmount; // required to reach at least this much, else everyone gets refund\n        uint currentBalance;\n        ProjectState state;\n        mapping (address => uint) contributions;\n    }\n\n    Project[] public projects;\n    uint public projectCount = 0;\n\n    /** Milestone data structures **/\n\n    struct Milestone {\n        uint projectId;\n        address payable creator;\n        string deliverable;\n        uint cost;\n        uint daysToComplete;\n    }\n\n    Milestone[] public milestones;\n\n    // Map project id to milestone ids.\n    mapping (uint => uint[]) public projectMilestones;\n    // Map project id to milestone counter.\n    mapping (uint => uint) public projectMilestoneCount;\n\n    /** Vote data structures **/\n\n    struct Vote {\n        uint milestoneId;\n        uint yay;\n        uint nay;\n        uint pollsClose;\n    }\n\n    Vote[] public votes;\n\n    // Map milestone id to vote id.\n    mapping (uint => uint) public milestoneVote;\n\n    /** Modifiers **/\n\n    // Check current project state.\n    modifier inState(uint _projectId, ProjectState _state) {\n        require(projects[_projectId].state == _state);\n        _;\n    }\n\n    // Check if the function caller is the project creator.\n    modifier isCreator(uint _projectId) {\n        require(msg.sender == projects[_projectId].creator);\n        _;\n    }\n\n    // Check if the function caller is NOT the project creator.\n    modifier isNotCreator(uint _projectId) {\n        require(msg.sender != projects[_projectId].creator);\n        _;\n    }\n\n    // Check if the function caller is a project contributor.\n    modifier onlyContributor(uint _voteId) {\n        require(projects[ // Get the project\n          milestones[ // which has the milestone\n            milestoneVote[_voteId] // which has this vote\n          ].projectId\n        ].contributions[msg.sender] > 0); // and check if msg.sender is a contributor\n        _;\n    }\n\n    /** Project business logic **/\n\n    /** @dev Create a new project.\n      * @param _title Title of the project to be created\n      * @param _description Brief description about the project\n      */\n    function createProject(\n        string calldata _title,\n        string calldata _description,\n        uint _daysToFundraise\n    ) external {\n        uint _fundraisingDeadline = now.add(_daysToFundraise.mul(1 days));\n\n        Project memory _newProject = Project(\n            msg.sender,\n            _title,\n            _description,\n            _fundraisingDeadline,\n            0, // completionDeadline\n            0, // goalAmount\n            0, // currentBalance\n            ProjectState.Fundraising\n        );\n\n        uint _projectId = projects.push(_newProject) - 1;\n        projectCount++;\n\n        emit ProjectCreated(\n            _projectId,\n            msg.sender,\n            _title,\n            _description,\n            _fundraisingDeadline\n        );\n    }\n\n    /** @dev Fund a project.\n      */\n    function contribute(uint _projectId)\n        external\n        isNotCreator(_projectId)\n        inState(_projectId, ProjectState.Fundraising)\n        payable\n    {\n        // Update the amount this user has contributed to the specified project.\n        projects[_projectId].contributions[msg.sender] =\n            projects[_projectId].contributions[msg.sender].add(msg.value);\n\n        // Update the balance of the specified project.\n        projects[_projectId].currentBalance =\n            projects[_projectId].currentBalance.add(msg.value);\n\n        emit FundingReceived(msg.sender, msg.value, projects[_projectId].currentBalance);\n\n        checkIfFundingComplete(_projectId);\n    }\n\n    function getContributions(uint _projectId) public view returns (uint) {\n        return projects[_projectId].contributions[msg.sender];\n    }\n\n    /** @dev Change the project state depending on conditions.\n      */\n    function checkIfFundingComplete(uint _projectId) public {\n        if (projects[_projectId].currentBalance >= projects[_projectId].goalAmount) {\n            projects[_projectId].state = ProjectState.Successful;\n            payOut(_projectId);\n        }\n        projects[_projectId].completionDeadline = now.add(milestones[projectMilestones[_projectId][0]].daysToComplete);\n    }\n\n    /** @dev Give the received funds to project starter.\n      */\n    function payOut(uint _projectId) internal inState(_projectId, ProjectState.Successful) returns (bool) {\n        uint _totalRaised = projects[_projectId].currentBalance;\n\n        if (projects[_projectId].creator.send(_totalRaised)) {\n            emit CreatorPaid(projects[_projectId].creator, _totalRaised);\n            projects[_projectId].currentBalance = 0;\n            return true;\n        }\n\n        return false;\n    }\n\n    /** @dev Retrieve donated amount when a project expires.\n      */\n    function getRefund(uint _projectId) public inState(_projectId, ProjectState.Expired) returns (bool) {\n        require(projects[_projectId].contributions[msg.sender] > 0);\n\n        uint _amountToRefund = projects[_projectId].contributions[msg.sender];\n        projects[_projectId].contributions[msg.sender] = 0;\n\n        if (!msg.sender.send(_amountToRefund)) {\n            projects[_projectId].contributions[msg.sender] = _amountToRefund;\n            return false;\n        } else {\n            projects[_projectId].currentBalance =\n                projects[_projectId].currentBalance.sub(_amountToRefund);\n        }\n\n        return true;\n    }\n\n    /** Milestone business logic **/\n\n    /** @dev Add a milestone to a project.\n      * @param _cost Milestone cost in Wei\n      * @param _daysToComplete Milestone completion period\n      */      \n    function createMilestone(\n        uint _projectId,\n        string calldata _deliverable,\n        uint _cost,\n        uint _daysToComplete\n    ) external {\n        Milestone memory _milestone = Milestone(\n            _projectId,\n            msg.sender,\n            _deliverable,\n            _cost,\n            _daysToComplete.mul(1 days)\n        );\n\n        uint _milestoneId = milestones.push(_milestone) - 1;\n        projectMilestones[_projectId].push(_milestoneId);\n        projectMilestoneCount[_projectId]++;\n        projects[_projectId].goalAmount += _cost;\n\n        emit MilestoneCreated(\n            _milestoneId,\n            msg.sender,\n            _deliverable,\n            _cost,\n            _daysToComplete\n        );\n    }\n\n    /** Vote business logic **/\n\n    function createVote(uint _milestoneId, uint votingPeriod) external {\n        // Add a week grace period for voting.\n        uint _pollsClose = now.add(votingPeriod.mul(1 days)).add(7 days);\n        Vote memory _vote = Vote(\n            _milestoneId,\n            0,\n            0,\n            _pollsClose\n        );\n\n        uint _voteId = votes.push(_vote) - 1;\n        milestoneVote[_milestoneId] = _voteId;\n\n        emit VoteCreated(\n            _voteId,\n            _pollsClose\n        );\n    }\n\n    function voteYay(uint _voteId) onlyContributor(_voteId) public {\n        votes[_voteId].yay++;\n        checkIfFundingApproved(_voteId);\n    }\n\n    function voteNay(uint _voteId) onlyContributor(_voteId) public {\n        votes[_voteId].nay++;\n        checkIfFundingApproved(_voteId);\n    }\n\n    function checkIfFundingApproved(uint _voteId) private {\n        // TODO: After each vote, see if we've reached a super majority or if the vote is expired\n    }\n}\n",
  "sourcePath": "C:/Users/Piyushch/Desktop/Gitcoin(GR10)/bounties/crowdfunding/CRDFND/ArFund-master/contracts/Crowdfund.sol",
  "compiler": {
    "name": "solc",
    "version": "0.5.10+commit.5a6ea5b1.Emscripten.clang"
  },
  "schemaVersion": "3.4.1",
  "updatedAt": "2021-07-09T11:15:22.907Z",
  "networkType": "ethereum",
  "devdoc": {
    "methods": {
      "checkIfFundingComplete(uint256)": {
        "details": "Change the project state depending on conditions."
      },
      "contribute(uint256)": {
        "details": "Fund a project."
      },
      "createMilestone(uint256,string,uint256,uint256)": {
        "details": "Add a milestone to a project.",
        "params": {
          "_cost": "Milestone cost in Wei",
          "_daysToComplete": "Milestone completion period"
        }
      },
      "createProject(string,string,uint256)": {
        "details": "Create a new project.",
        "params": {
          "_description": "Brief description about the project",
          "_title": "Title of the project to be created"
        }
      },
      "getRefund(uint256)": {
        "details": "Retrieve donated amount when a project expires."
      }
    }
  },
  "userdoc": {
    "methods": {
      "createVote(uint256,uint256)": {
        "notice": "Vote business logic *"
      }
    }
  }
}